{
  "contractName": "StarNotary",
  "abi": [
    {
      "constant": true,
      "inputs": [
        {
          "name": "",
          "type": "uint256"
        }
      ],
      "name": "starsForSale",
      "outputs": [
        {
          "name": "",
          "type": "uint256"
        }
      ],
      "payable": false,
      "stateMutability": "view",
      "type": "function"
    },
    {
      "constant": true,
      "inputs": [
        {
          "name": "_tokenId",
          "type": "uint256"
        }
      ],
      "name": "getApproved",
      "outputs": [
        {
          "name": "",
          "type": "address"
        }
      ],
      "payable": false,
      "stateMutability": "view",
      "type": "function"
    },
    {
      "constant": false,
      "inputs": [
        {
          "name": "_approved",
          "type": "address"
        },
        {
          "name": "_tokenId",
          "type": "uint256"
        }
      ],
      "name": "approve",
      "outputs": [],
      "payable": true,
      "stateMutability": "payable",
      "type": "function"
    },
    {
      "constant": true,
      "inputs": [
        {
          "name": "",
          "type": "uint256"
        }
      ],
      "name": "tokenIdToStarInfo",
      "outputs": [
        {
          "name": "name",
          "type": "string"
        }
      ],
      "payable": false,
      "stateMutability": "view",
      "type": "function"
    },
    {
      "constant": false,
      "inputs": [
        {
          "name": "_from",
          "type": "address"
        },
        {
          "name": "_to",
          "type": "address"
        },
        {
          "name": "_tokenId",
          "type": "uint256"
        }
      ],
      "name": "transferFrom",
      "outputs": [],
      "payable": true,
      "stateMutability": "payable",
      "type": "function"
    },
    {
      "constant": false,
      "inputs": [
        {
          "name": "_from",
          "type": "address"
        },
        {
          "name": "_to",
          "type": "address"
        },
        {
          "name": "_tokenId",
          "type": "uint256"
        }
      ],
      "name": "safeTransferFrom",
      "outputs": [],
      "payable": true,
      "stateMutability": "payable",
      "type": "function"
    },
    {
      "constant": true,
      "inputs": [
        {
          "name": "_tokenId",
          "type": "uint256"
        }
      ],
      "name": "ownerOf",
      "outputs": [
        {
          "name": "",
          "type": "address"
        }
      ],
      "payable": false,
      "stateMutability": "view",
      "type": "function"
    },
    {
      "constant": true,
      "inputs": [
        {
          "name": "_owner",
          "type": "address"
        }
      ],
      "name": "balanceOf",
      "outputs": [
        {
          "name": "",
          "type": "uint256"
        }
      ],
      "payable": false,
      "stateMutability": "view",
      "type": "function"
    },
    {
      "constant": false,
      "inputs": [
        {
          "name": "_tokenId",
          "type": "uint256"
        }
      ],
      "name": "mint",
      "outputs": [],
      "payable": false,
      "stateMutability": "nonpayable",
      "type": "function"
    },
    {
      "constant": false,
      "inputs": [
        {
          "name": "_operator",
          "type": "address"
        },
        {
          "name": "_approved",
          "type": "bool"
        }
      ],
      "name": "setApprovalForAll",
      "outputs": [],
      "payable": false,
      "stateMutability": "nonpayable",
      "type": "function"
    },
    {
      "constant": false,
      "inputs": [
        {
          "name": "_from",
          "type": "address"
        },
        {
          "name": "_to",
          "type": "address"
        },
        {
          "name": "_tokenId",
          "type": "uint256"
        },
        {
          "name": "data",
          "type": "bytes"
        }
      ],
      "name": "safeTransferFrom",
      "outputs": [],
      "payable": true,
      "stateMutability": "payable",
      "type": "function"
    },
    {
      "constant": true,
      "inputs": [
        {
          "name": "_owner",
          "type": "address"
        },
        {
          "name": "_operator",
          "type": "address"
        }
      ],
      "name": "isApprovedForAll",
      "outputs": [
        {
          "name": "",
          "type": "bool"
        }
      ],
      "payable": false,
      "stateMutability": "view",
      "type": "function"
    },
    {
      "anonymous": false,
      "inputs": [
        {
          "indexed": true,
          "name": "_from",
          "type": "address"
        },
        {
          "indexed": true,
          "name": "_to",
          "type": "address"
        },
        {
          "indexed": true,
          "name": "_tokenId",
          "type": "uint256"
        }
      ],
      "name": "Transfer",
      "type": "event"
    },
    {
      "anonymous": false,
      "inputs": [
        {
          "indexed": true,
          "name": "_owner",
          "type": "address"
        },
        {
          "indexed": true,
          "name": "_approved",
          "type": "address"
        },
        {
          "indexed": true,
          "name": "_tokenId",
          "type": "uint256"
        }
      ],
      "name": "Approval",
      "type": "event"
    },
    {
      "anonymous": false,
      "inputs": [
        {
          "indexed": true,
          "name": "_owner",
          "type": "address"
        },
        {
          "indexed": true,
          "name": "_operator",
          "type": "address"
        },
        {
          "indexed": false,
          "name": "_approved",
          "type": "bool"
        }
      ],
      "name": "ApprovalForAll",
      "type": "event"
    },
    {
      "constant": false,
      "inputs": [
        {
          "name": "_name",
          "type": "string"
        },
        {
          "name": "_tokenId",
          "type": "uint256"
        }
      ],
      "name": "createStar",
      "outputs": [],
      "payable": false,
      "stateMutability": "nonpayable",
      "type": "function"
    },
    {
      "constant": false,
      "inputs": [
        {
          "name": "_tokenId",
          "type": "uint256"
        },
        {
          "name": "_price",
          "type": "uint256"
        }
      ],
      "name": "putStarUpForSale",
      "outputs": [],
      "payable": false,
      "stateMutability": "nonpayable",
      "type": "function"
    },
    {
      "constant": false,
      "inputs": [
        {
          "name": "_tokenId",
          "type": "uint256"
        }
      ],
      "name": "buyStar",
      "outputs": [],
      "payable": true,
      "stateMutability": "payable",
      "type": "function"
    }
  ],
  "bytecode": "0x608060405234801561001057600080fd5b5061132f806100206000396000f3006080604052600436106100db576000357c0100000000000000000000000000000000000000000000000000000000900463ffffffff1680630564b130146100e0578063081812fc14610121578063095ea7b31461018e5780631967fd98146101ce57806323b872dd146102745780632f1c34ef146102d4578063316a4361146102f457806342842e0e1461032b5780636352211e1461038b57806370a08231146103f85780639697c0a11461044f578063a0712d68146104c2578063a22cb465146104ef578063b88d4fde1461053e578063e985e9c5146105b6575b600080fd5b3480156100ec57600080fd5b5061010b60048036038101908080359060200190929190505050610631565b6040518082815260200191505060405180910390f35b34801561012d57600080fd5b5061014c60048036038101908080359060200190929190505050610649565b604051808273ffffffffffffffffffffffffffffffffffffffff1673ffffffffffffffffffffffffffffffffffffffff16815260200191505060405180910390f35b6101cc600480360381019080803573ffffffffffffffffffffffffffffffffffffffff16906020019092919080359060200190929190505050610686565b005b3480156101da57600080fd5b506101f9600480360381019080803590602001909291905050506107a3565b6040518080602001828103825283818151815260200191508051906020019080838360005b8381101561023957808201518184015260208101905061021e565b50505050905090810190601f1680156102665780820380516001836020036101000a031916815260200191505b509250505060405180910390f35b6102d2600480360381019080803573ffffffffffffffffffffffffffffffffffffffff169060200190929190803573ffffffffffffffffffffffffffffffffffffffff16906020019092919080359060200190929190505050610859565b005b6102f260048036038101908080359060200190929190505050610917565b005b34801561030057600080fd5b506103296004803603810190808035906020019092919080359060200190929190505050610abf565b005b610389600480360381019080803573ffffffffffffffffffffffffffffffffffffffff169060200190929190803573ffffffffffffffffffffffffffffffffffffffff16906020019092919080359060200190929190505050610bbe565b005b34801561039757600080fd5b506103b660048036038101908080359060200190929190505050610bc3565b604051808273ffffffffffffffffffffffffffffffffffffffff1673ffffffffffffffffffffffffffffffffffffffff16815260200191505060405180910390f35b34801561040457600080fd5b50610439600480360381019080803573ffffffffffffffffffffffffffffffffffffffff169060200190929190505050610bff565b6040518082815260200191505060405180910390f35b34801561045b57600080fd5b506104c0600480360381019080803590602001908201803590602001908080601f016020809104026020016040519081016040528093929190818152602001838380828437820191505050505050919291929080359060200190929190505050610cec565b005b3480156104ce57600080fd5b506104ed60048036038101908080359060200190929190505050610d48565b005b3480156104fb57600080fd5b5061053c600480360381019080803573ffffffffffffffffffffffffffffffffffffffff169060200190929190803515159060200190929190505050610f41565b005b6105b4600480360381019080803573ffffffffffffffffffffffffffffffffffffffff169060200190929190803573ffffffffffffffffffffffffffffffffffffffff16906020019092919080359060200190929190803590602001908201803590602001919091929391929390505050611042565b005b3480156105c257600080fd5b50610617600480360381019080803573ffffffffffffffffffffffffffffffffffffffff169060200190929190803573ffffffffffffffffffffffffffffffffffffffff169060200190929190505050611049565b604051808215151515815260200191505060405180910390f35b60056020528060005260406000206000915090505481565b60006002600083815260200190815260200160002060009054906101000a900473ffffffffffffffffffffffffffffffffffffffff169050919050565b3373ffffffffffffffffffffffffffffffffffffffff1660008083815260200190815260200160002060009054906101000a900473ffffffffffffffffffffffffffffffffffffffff1673ffffffffffffffffffffffffffffffffffffffff161415156106f257600080fd5b816002600083815260200190815260200160002060006101000a81548173ffffffffffffffffffffffffffffffffffffffff021916908373ffffffffffffffffffffffffffffffffffffffff160217905550808273ffffffffffffffffffffffffffffffffffffffff163373ffffffffffffffffffffffffffffffffffffffff167f8c5be1e5ebec7d5bd14f71427d1e84f3dd0314c0f7b2291e5b200ac8c7c3b92560405160405180910390a45050565b6004602052806000526040600020600091509050806000018054600181600116156101000203166002900480601f01602080910402602001604051908101604052809291908181526020018280546001816001161561010002031660029004801561084f5780601f106108245761010080835404028352916020019161084f565b820191906000526020600020905b81548152906001019060200180831161083257829003601f168201915b5050505050905081565b338160008082815260200190815260200160002060009054906101000a900473ffffffffffffffffffffffffffffffffffffffff1673ffffffffffffffffffffffffffffffffffffffff168273ffffffffffffffffffffffffffffffffffffffff1614806108fa57508173ffffffffffffffffffffffffffffffffffffffff166108e282610649565b73ffffffffffffffffffffffffffffffffffffffff16145b151561090557600080fd5b6109108585856110dd565b5050505050565b6000806000600560008581526020019081526020016000205411151561093c57600080fd5b600560008481526020019081526020016000205491503073ffffffffffffffffffffffffffffffffffffffff16636352211e846040518263ffffffff167c010000000000000000000000000000000000000000000000000000000002815260040180828152602001915050602060405180830381600087803b1580156109c157600080fd5b505af11580156109d5573d6000803e3d6000fd5b505050506040513d60208110156109eb57600080fd5b81019080805190602001909291905050509050813410151515610a0d57600080fd5b610a16836111db565b610a218133856110dd565b81341115610a73573373ffffffffffffffffffffffffffffffffffffffff166108fc8334039081150290604051600060405180830381858888f19350505050158015610a71573d6000803e3d6000fd5b505b8073ffffffffffffffffffffffffffffffffffffffff166108fc839081150290604051600060405180830381858888f19350505050158015610ab9573d6000803e3d6000fd5b50505050565b3373ffffffffffffffffffffffffffffffffffffffff163073ffffffffffffffffffffffffffffffffffffffff16636352211e846040518263ffffffff167c010000000000000000000000000000000000000000000000000000000002815260040180828152602001915050602060405180830381600087803b158015610b4557600080fd5b505af1158015610b59573d6000803e3d6000fd5b505050506040513d6020811015610b6f57600080fd5b810190808051906020019092919050505073ffffffffffffffffffffffffffffffffffffffff16141515610ba257600080fd5b8060056000848152602001908152602001600020819055505050565b505050565b600080600083815260200190815260200160002060009054906101000a900473ffffffffffffffffffffffffffffffffffffffff169050919050565b60008073ffffffffffffffffffffffffffffffffffffffff168273ffffffffffffffffffffffffffffffffffffffff1614151515610ca5576040517f08c379a00000000000000000000000000000000000000000000000000000000081526004018080602001828103825260208152602001807f43616e6e6f742061736b20666f7220796f7572206f776e2062616c616e63652181525060200191505060405180910390fd5b600160008373ffffffffffffffffffffffffffffffffffffffff1673ffffffffffffffffffffffffffffffffffffffff168152602001908152602001600020549050919050565b610cf461124a565b60206040519081016040528084815250905080600460008481526020019081526020016000206000820151816000019080519060200190610d3692919061125e565b50905050610d4382610d48565b505050565b600073ffffffffffffffffffffffffffffffffffffffff1660008083815260200190815260200160002060009054906101000a900473ffffffffffffffffffffffffffffffffffffffff1673ffffffffffffffffffffffffffffffffffffffff16141515610e44576040517f08c379a000000000000000000000000000000000000000000000000000000000815260040180806020018281038252602b8152602001807f5468697320746f6b656e20616c72656164792062656c6f6e677320746f20736f81526020017f6d656f6e6520656c73652100000000000000000000000000000000000000000081525060400191505060405180910390fd5b3360008083815260200190815260200160002060006101000a81548173ffffffffffffffffffffffffffffffffffffffff021916908373ffffffffffffffffffffffffffffffffffffffff16021790555060018060003373ffffffffffffffffffffffffffffffffffffffff1673ffffffffffffffffffffffffffffffffffffffff16815260200190815260200160002060008282540192505081905550803373ffffffffffffffffffffffffffffffffffffffff16600073ffffffffffffffffffffffffffffffffffffffff167fddf252ad1be2c89b69c2b068fc378daa952ba7f163c4a11628f55a4df523b3ef60405160405180910390a450565b80600360003373ffffffffffffffffffffffffffffffffffffffff1673ffffffffffffffffffffffffffffffffffffffff16815260200190815260200160002060008473ffffffffffffffffffffffffffffffffffffffff1673ffffffffffffffffffffffffffffffffffffffff16815260200190815260200160002060006101000a81548160ff0219169083151502179055508173ffffffffffffffffffffffffffffffffffffffff163373ffffffffffffffffffffffffffffffffffffffff167f17307eab39ab6107e8899845ad3d59bd9653f200f220920489ca2b5937696c3183604051808215151515815260200191505060405180910390a35050565b5050505050565b6000600360008473ffffffffffffffffffffffffffffffffffffffff1673ffffffffffffffffffffffffffffffffffffffff16815260200190815260200160002060008373ffffffffffffffffffffffffffffffffffffffff1673ffffffffffffffffffffffffffffffffffffffff16815260200190815260200160002060009054906101000a900460ff16905092915050565b8160008083815260200190815260200160002060006101000a81548173ffffffffffffffffffffffffffffffffffffffff021916908373ffffffffffffffffffffffffffffffffffffffff16021790555060018060008573ffffffffffffffffffffffffffffffffffffffff1673ffffffffffffffffffffffffffffffffffffffff16815260200190815260200160002060008282540392505081905550808273ffffffffffffffffffffffffffffffffffffffff168473ffffffffffffffffffffffffffffffffffffffff167fddf252ad1be2c89b69c2b068fc378daa952ba7f163c4a11628f55a4df523b3ef60405160405180910390a4505050565b60006002600083815260200190815260200160002060006101000a81548173ffffffffffffffffffffffffffffffffffffffff021916908373ffffffffffffffffffffffffffffffffffffffff1602179055506000600560008381526020019081526020016000208190555050565b602060405190810160405280606081525090565b828054600181600116156101000203166002900490600052602060002090601f016020900481019282601f1061129f57805160ff19168380011785556112cd565b828001600101855582156112cd579182015b828111156112cc5782518255916020019190600101906112b1565b5b5090506112da91906112de565b5090565b61130091905b808211156112fc5760008160009055506001016112e4565b5090565b905600a165627a7a7230582033ba6037274a2350b743fdcc25de527172d289d775abd70a9c048240b985cd170029",
  "source": "pragma solidity ^0.4.23;\r\n\r\nimport './ERC721Token.sol';\r\n\r\ncontract StarNotary is ERC721Token { \r\n\r\n    // defines the additional metadata we need for a star\r\n    // the struct callback is similar to a json schema\r\n    // more here: https://solidity.readthedocs.io/en/v0.4.24/structure-of-a-contract.html#struct-types\r\n    struct Star {\r\n        string name;\r\n    }\r\n\r\n    // maps the starId to it additional metadata\r\n    mapping(uint256 => Star) public tokenIdToStarInfo;\r\n\r\n    // create a mapping to hold all stars for sale\r\n    mapping(uint256 => uint256) public starsForSale;\r\n\r\n    // creates a star with a name, and a tokenId\r\n    function createStar(string _name, uint256 _tokenId) public {\r\n        // this is a type that will be deleted after the function call\r\n\r\n        // assigns the current Star to a new variable called memory\r\n        Star memory newStar = Star(_name);\r\n\r\n        // saves the new star name under the tokenId\r\n        tokenIdToStarInfo[_tokenId] = newStar;\r\n\r\n        // calls the mint function established in earlier lessons, mega cool\r\n        ERC721Token.mint(_tokenId);\r\n\r\n    }\r\n\r\n    // puts a star up for sale, with the tokenId and the price\r\n    function putStarUpForSale(uint256 _tokenId, uint256 _price) public {\r\n\r\n        // requires that ownly the owner of the token can run this function\r\n        require(this.ownerOf(_tokenId) == msg.sender);\r\n\r\n        // adds the star to the starsForSale mapping via tokenId and sets the price\r\n        starsForSale[_tokenId] = _price;\r\n    }\r\n\r\n    // checks if the price for that star has been defined, marking it as for sale\r\n    function buyStar(uint256 _tokenId) public payable{\r\n\r\n        // requires that the star has been added to the starsForSale array\r\n        // checks price is greater than 0, ensuring star is for sale\r\n        require(starsForSale[_tokenId] > 0 );\r\n\r\n        // grabs _price value from mapping, saves into starCost variable\r\n        uint256 starCost = starsForSale[_tokenId];\r\n\r\n        // grabs the address of the star owner, but using the .ownerOf function\r\n        address starOwner = this.ownerOf(_tokenId);\r\n\r\n        // requires the value passed with the transaction to be equal to or greater than the star value\r\n        // to purchase the star\r\n        require(msg.value >= starCost);\r\n\r\n        // this clears the previous star state, removing the star from the starsForSale array\r\n        // also clearing a ton of ERC721 authentication values necessary for the sale to process\r\n        clearPreviousStarState(_tokenId);\r\n\r\n        // uses the transferFrom helper from ERC721Token\r\n        // expects ownerAddress, receiverAddress, and tokenId\r\n        transferFromHelper(starOwner, msg.sender, _tokenId);\r\n\r\n        // ensures that if the transaction value is greater than the starCost, returns extra to sender\r\n        if(msg.value > starCost){\r\n\r\n            // transfers the cost back to the sender, very helpful util!\r\n            msg.sender.transfer(msg.value - starCost);\r\n\r\n        }\r\n\r\n        // rewards the starOwner with the value of the price, after the star is sold\r\n        starOwner.transfer(starCost);\r\n    }\r\n\r\n    // private functions cannot be called outside of the contract, can only be invoked and used by\r\n    // functions in the contract\r\n    function clearPreviousStarState(uint256 _tokenId ) private{\r\n        // clears approvals of token transfer permission following the ERC721 protocol\r\n        tokenToApproved[_tokenId] = 0;\r\n\r\n        // removes from starsForSale array\r\n        starsForSale[_tokenId] = 0;\r\n    }\r\n\r\n}",
  "sourcePath": "D:\\Documents\\School\\Udacity\\blockchains\\part4\\smart_contracts\\contracts\\StarNotary.sol",
  "compiler": {
    "name": "solc",
    "version": "0.4.24+commit.e67f0147.Emscripten.clang"
  },
  "schemaVersion": "2.0.1",
  "updatedAt": "2018-10-04T11:09:45.733Z"
}